S00C00006D61696E2E7372656373
S113000019C033C032C031C030C02FC02EC02DC083
S11300102CC02BC02AC029C028C027C026C025C098
S113002024C023C09CC021C020C01FC01EC01DC04E
S11300301CC01BC011241FBECFEFD4E0DEBFCDBF58
S113004011E0A0E0B1E0EEEDF7E002C005900D9202
S1130050A632B107D9F721E0A6E2B1E001C01D92B2
S1130060AE32B207E1F78FD0B8C3CACF94B19C6265
S113007094B92498813031F08CB580658CBD2A9A6E
S113008081E008958CB58F7E8CBD8CB580648CBD69
S113009081E0089561110CC02A984EBD0DB400FE94
S11300A0FDCF213019F0611101C02A9A8EB508954F
S11300B0E1E0F0E0082E01C0EE0F0A94EAF7E095C3
S11300C06E23EBCF20E040E0E5CF20E0E3DF81E0EA
S11300D008959B01AC01220F331F441F551F220FAB
S11300E0331F441F551F220F331F441F551F220F58
S11300F0331F441F551F60E072E18AE790E067D028
S11301002150310941095109519A8BB183608BB94E
S1130110BB27A52F942F832F8093C5002093C40061
S11301201092C00086E08093C20088E98093C100E9
S1130130789480E00895CF93C82F8A3051F090913D
S1130140C00095FFFCCFC093C60080E090E0CF9143
S113015008958DE0F0DFF3CF8091270108951F9279
S11301600F920FB60F9211248F938091C000887163
S113017021F48091C600809327018F910F900FBEC8
S11301800F901F90189560E875E280E090E0A1DF81
S113019080E091E090932B0180932A01CEE0D1E09E
S11301A0DBDF1F928F93DF93CF9333D089E191E00C
S11301B041D09FEF24E38CE0915020408040E1F750
S11301C000C000000F900F900F900F90E9CFA1E2B4
S11301D01A2EAA1BBB1BFD010DC0AA1FBB1FEE1FBD
S11301E0FF1FA217B307E407F50720F0A21BB30B08
S11301F0E40BF50B661F771F881F991F1A9469F784
S113020060957095809590959B01AC01BD01CF01DF
S11302100895A0E0B0E0EEE0F1E0B8C2FE0135964A
S113022061917191AF0180912A0190912B0131D09C
S1130230E2E0C8C20F931F93CF93DF938C01E09148
S11302402A01F0912B01838181FF1BC0C0E0D0E023
S113025005C00995892B11F0CFEFDFEFF8018191EB
S11302608F0160912A0170912B01DB011896ED91A9
S1130270FC9119978111EDCF8AE00995892B09F436
S113028002C0CFEFDFEFCE01DF91CF911F910F912D
S11302900895ACE0B0E0EEE4F1E068C27C016B01EB
S11302A08A01FC0117821682838181FFB9C18824E7
S11302B08394912C8C0E9D1EF7019381F60193FD7E
S11302C0859193FF81916F01882309F4A5C185323B
S11302D039F493FD859193FF81916F01853221F467
S11302E0B70190E0B9D1E8CF512C312C20E0203275
S11302F0A8F48B3261F028F4803251F0833271F427
S11303000BC08D3239F0803349F4216028C022605B
S1130310246025C0286023C0206121C027FD27C098
S1130320382F30533A3078F426FF06C0FAE05F9E47
S1130330300D1124532E13C08AE0389E300D112441
S1130340332E20620CC08E3221F426FD65C1206458
S113035006C08C3611F4206802C0883641F4F601D8
S113036093FD859193FF81916F018111C0CF982FE7
S11303709554933018F09052933028F40C5F1F4F2B
S1130380FFE3F9830DC0833631F0833771F0833591
S113039009F05AC022C0F801808189830E5F1F4F83
S11303A044244394512C540114C03801F2E06F0EDC
S11303B0711CF801A080B18026FF03C0652D70E098
S11303C002C06FEF7FEFC5012C873BD12C01830165
S11303D02C856FE7262E222217C03801F2E06F0E1B
S11303E0711CF801A080B18026FF03C0652D70E068
S11303F002C06FEF7FEFC5012C8718D12C012C852B
S113040050E8252E222A830123FC1AC005C0B70117
S113041080E290E021D13A94832D90E04816590669
S1130420B0F30EC0F50127FC859127FE81915F0191
S1130430B70190E011D131103A94F1E04F1A51080C
S11304404114510479F7E5C0843611F0893639F541
S1130450F80127FF07C060817181828193810C5F5D
S11304601F4F08C060817181882777FD8095982F80
S11304700E5F1F4F4FE6B42EB22297FF09C090952E
S11304808095709561957F4F8F4F9F4FF0E8BF2AFD
S11304902AE030E0A4010CD1A82EA81842C0853768
S11304A031F43FEEB32EB2222AE030E024C099EFBB
S11304B0B92EB2228F36B9F020F4883509F0ACC0D9
S11304C00DC0803721F0883709F0A6C002C020E1B2
S11304D0B22AB4FE0BC084E0B82A08C024FF09C0C5
S11304E0E6E0BE2A06C028E030E005C020E130E0A6
S11304F002C020E132E0F801B7FE07C060817181DB
S1130500828193810C5F1F4F06C06081718180E0FE
S113051090E00E5F1F4FA401CBD0A82EA818FFE7D0
S1130520BF22B6FE0BC02B2D2E7FA51450F4B4FEB3
S11305300AC0B2FC08C02B2D2E7E05C07A2C2B2DB0
S113054003C07A2C01C0752C24FF0DC0FE01EA0DF6
S1130550F11D8081803311F4297E09C022FF06C079
S11305607394739404C0822F867809F0739423FDE6
S113057013C020FF0EC05A2C731458F4530C571890
S1130580732C07C0B70180E290E02C8765D0739488
S11305902C857314B8F304C0731410F4371801C015
S11305A0312C24FF11C0B70180E390E02C8754D094
S11305B02C8522FF1CC021FF03C088E590E002C007
S11305C088E790E0B7010CC0822F867881F021FD86
S11305D002C080E201C08BE227FD8DE2B70190E00A
S11305E03BD005C0B70180E390E036D05A94A514FF
S11305F0C8F3AA94F401EA0DF11DB701808190E0DB
S11306002BD0A110F6CF05C0B70180E290E024D032
S11306103A943110F9CF50CEF7012681378102C0C8
S11306202FEF3FEFC9012C96E2E1BCC0FC0105901D
S1130630615070400110D8F7809590958E0F9F1FE0
S11306400895FC016150704001900110D8F7809525
S113065090958E0F9F1F08950F931F93CF93DF9351
S11306608C01EB018B8181FD03C00FEF1FEF1AC0DA
S113067082FF0DC02E813F818C819D81281739070F
S113068064F4E881F9810193F983E88306C0E8857D
S1130690F985802F0995892B41F78E819F810196D9
S11306A09F838E83C801DF91CF911F910F9108958D
S11306B0FA01AA27283051F1203181F1E8946F938F
S11306C06E7F6E5F7F4F8F4F9F4FAF4FB1E03ED035
S11306D0B4E03CD0670F781F891F9A1FA11D680FD3
S11306E0791F8A1F911DA11D6A0F711D811D911D06
S11306F0A11D20D009F468943F912AE0269F11247B
S11307003019305D3193DEF6CF010895462F4770DE
S1130710405D4193B3E00FD0C9F7F6CF462F4F7039
S1130720405D4A3318F0495D31FD4052419302D097
S1130730A9F7EACFB4E0A69597958795779567953D
S1130740BA95C9F700976105710508959B01AC013D
S11307500A2E06945795479537952795BA95C9F764
S1130760620F731F841F951FA01D08952F923F923F
S11307704F925F926F927F928F929F92AF92BF92AD
S1130780CF92DF92EF92FF920F931F93CF93DF9359
S1130790CDB7DEB7CA1BDB0B0FB6F894DEBF0FBEB6
S11307A0CDBF09942A88398848885F846E847D8403
S11307B08C849B84AA84B984C884DF80EE80FD8005
S11307C00C811B81AA81B981CE0FD11D0FB6F8947B
S11107D0DEBF0FBECDBFED010895F894FFCF3C
S11307DE00000002000000009B00000000006461A5
S11307EE7461203D2025780A0068692069276D20F0
S10907FE6A61636B210037
S9030000FC
